{
  "contractName": "FactoryContact",
  "abi": [
    {
      "anonymous": false,
      "inputs": [
        {
          "indexed": false,
          "internalType": "address",
          "name": "newContract",
          "type": "address"
        },
        {
          "indexed": false,
          "internalType": "uint256",
          "name": "timestamp",
          "type": "uint256"
        }
      ],
      "name": "ContractCreated",
      "type": "event"
    },
    {
      "inputs": [
        {
          "internalType": "uint256",
          "name": "",
          "type": "uint256"
        }
      ],
      "name": "deployedContracts",
      "outputs": [
        {
          "internalType": "contract MilestoneContractTestEvent",
          "name": "",
          "type": "address"
        }
      ],
      "stateMutability": "view",
      "type": "function"
    },
    {
      "inputs": [
        {
          "internalType": "address payable",
          "name": "_provider",
          "type": "address"
        },
        {
          "internalType": "address payable",
          "name": "_mo_address",
          "type": "address"
        }
      ],
      "name": "createContract",
      "outputs": [],
      "stateMutability": "nonpayable",
      "type": "function"
    },
    {
      "inputs": [],
      "name": "getDeployedContracts",
      "outputs": [
        {
          "internalType": "contract MilestoneContractTestEvent[]",
          "name": "",
          "type": "address[]"
        }
      ],
      "stateMutability": "view",
      "type": "function"
    }
  ],
  "bytecode": "0x608060405234801561001057600080fd5b506118ed806100206000396000f3fe608060405234801561001057600080fd5b50600436106100415760003560e01c80633c46c43c146100465780639ad1ee1014610062578063aa9a068f14610092575b600080fd5b610060600480360381019061005b91906102c8565b6100b0565b005b61007c6004803603810190610077919061033e565b61018b565b60405161008991906103ca565b60405180910390f35b61009a6101ca565b6040516100a791906104a3565b60405180910390f35b600082826040516100c090610258565b6100cb9291906104d4565b604051809103906000f0801580156100e7573d6000803e3d6000fd5b5090506000819080600181540180825580915050600190039060005260206000200160009091909190916101000a81548173ffffffffffffffffffffffffffffffffffffffff021916908373ffffffffffffffffffffffffffffffffffffffff1602179055507f1dc05c1d6a563dddb6c22082af72b54ec2f0207ceb55db5d13cdabc208f303a9814260405161017e92919061052d565b60405180910390a1505050565b6000818154811061019b57600080fd5b906000526020600020016000915054906101000a900473ffffffffffffffffffffffffffffffffffffffff1681565b6060600080548060200260200160405190810160405280929190818152602001828054801561024e57602002820191906000526020600020905b8160009054906101000a900473ffffffffffffffffffffffffffffffffffffffff1673ffffffffffffffffffffffffffffffffffffffff1681526020019060010190808311610204575b5050505050905090565b6113618061055783390190565b600080fd5b600073ffffffffffffffffffffffffffffffffffffffff82169050919050565b60006102958261026a565b9050919050565b6102a58161028a565b81146102b057600080fd5b50565b6000813590506102c28161029c565b92915050565b600080604083850312156102df576102de610265565b5b60006102ed858286016102b3565b92505060206102fe858286016102b3565b9150509250929050565b6000819050919050565b61031b81610308565b811461032657600080fd5b50565b60008135905061033881610312565b92915050565b60006020828403121561035457610353610265565b5b600061036284828501610329565b91505092915050565b6000819050919050565b600061039061038b6103868461026a565b61036b565b61026a565b9050919050565b60006103a282610375565b9050919050565b60006103b482610397565b9050919050565b6103c4816103a9565b82525050565b60006020820190506103df60008301846103bb565b92915050565b600081519050919050565b600082825260208201905092915050565b6000819050602082019050919050565b61041a816103a9565b82525050565b600061042c8383610411565b60208301905092915050565b6000602082019050919050565b6000610450826103e5565b61045a81856103f0565b935061046583610401565b8060005b8381101561049657815161047d8882610420565b975061048883610438565b925050600181019050610469565b5085935050505092915050565b600060208201905081810360008301526104bd8184610445565b905092915050565b6104ce8161028a565b82525050565b60006040820190506104e960008301856104c5565b6104f660208301846104c5565b9392505050565b60006105088261026a565b9050919050565b610518816104fd565b82525050565b61052781610308565b82525050565b6000604082019050610542600083018561050f565b61054f602083018461051e565b939250505056fe608060405260006003553480156200001657600080fd5b50604051620013613803806200136183398181016040528101906200003c919062000170565b336000806101000a81548173ffffffffffffffffffffffffffffffffffffffff021916908373ffffffffffffffffffffffffffffffffffffffff16021790555081600160006101000a81548173ffffffffffffffffffffffffffffffffffffffff021916908373ffffffffffffffffffffffffffffffffffffffff16021790555080600260006101000a81548173ffffffffffffffffffffffffffffffffffffffff021916908373ffffffffffffffffffffffffffffffffffffffff1602179055505050620001b7565b600080fd5b600073ffffffffffffffffffffffffffffffffffffffff82169050919050565b600062000138826200010b565b9050919050565b6200014a816200012b565b81146200015657600080fd5b50565b6000815190506200016a816200013f565b92915050565b600080604083850312156200018a576200018962000106565b5b60006200019a8582860162000159565b9250506020620001ad8582860162000159565b9150509250929050565b61119a80620001c76000396000f3fe608060405234801561001057600080fd5b50600436106100935760003560e01c8063c3dcb3e011610066578063c3dcb3e01461010e578063cbcee42e1461013e578063d58255661461016e578063e89e4ed61461018c578063ebceba42146101c057610093565b8063085d48831461009857806327b238af146100b65780635a77dc46146100d457806362139ecb146100f2575b600080fd5b6100a06101de565b6040516100ad9190610823565b60405180910390f35b6100be610204565b6040516100cb9190610823565b60405180910390f35b6100dc61022a565b6040516100e99190610823565b60405180910390f35b61010c600480360381019061010791906109ce565b61024e565b005b61012860048036038101906101239190610a65565b610392565b6040516101359190610b96565b60405180910390f35b61015860048036038101906101539190610a65565b610479565b6040516101659190610b96565b60405180910390f35b6101766105c6565b6040516101839190610bc7565b60405180910390f35b6101a660048036038101906101a19190610a65565b6105cc565b6040516101b7959493929190610c2c565b60405180910390f35b6101c861069a565b6040516101d59190610dbe565b60405180910390f35b600160009054906101000a900473ffffffffffffffffffffffffffffffffffffffff1681565b600260009054906101000a900473ffffffffffffffffffffffffffffffffffffffff1681565b60008054906101000a900473ffffffffffffffffffffffffffffffffffffffff1681565b60008054906101000a900473ffffffffffffffffffffffffffffffffffffffff1673ffffffffffffffffffffffffffffffffffffffff163373ffffffffffffffffffffffffffffffffffffffff16146102a657600080fd5b6102ae6107b3565b85816000018181525050848160200181905250838160400181815250508281606001818152505081816080018181525050600481908060018154018082558091505060019003906000526020600020906005020160009091909190915060008201518160000155602082015181600101908161032a9190610fec565b5060408201518160020155606082015181600301556080820151816004015550507fe8e484a646a8c28e10fb95395488d5ec053dd5d53b7fe5c8c7bf7ae0e290d8ac8686868686604051610382959493929190610c2c565b60405180910390a1505050505050565b61039a6107b3565b600560008381526020019081526020016000206040518060a0016040529081600082015481526020016001820180546103d290610e0f565b80601f01602080910402602001604051908101604052809291908181526020018280546103fe90610e0f565b801561044b5780601f106104205761010080835404028352916020019161044b565b820191906000526020600020905b81548152906001019060200180831161042e57829003601f168201915b5050505050815260200160028201548152602001600382015481526020016004820154815250509050919050565b6104816107b3565b60005b6004805490508110156105bf5782600482815481106104a6576104a56110be565b5b906000526020600020906005020160000154036105ac57600481815481106104d1576104d06110be565b5b90600052602060002090600502016040518060a00160405290816000820154815260200160018201805461050490610e0f565b80601f016020809104026020016040519081016040528092919081815260200182805461053090610e0f565b801561057d5780601f106105525761010080835404028352916020019161057d565b820191906000526020600020905b81548152906001019060200180831161056057829003601f168201915b5050505050815260200160028201548152602001600382015481526020016004820154815250509150506105c1565b80806105b79061111c565b915050610484565b505b919050565b60035481565b600481815481106105dc57600080fd5b906000526020600020906005020160009150905080600001549080600101805461060590610e0f565b80601f016020809104026020016040519081016040528092919081815260200182805461063190610e0f565b801561067e5780601f106106535761010080835404028352916020019161067e565b820191906000526020600020905b81548152906001019060200180831161066157829003601f168201915b5050505050908060020154908060030154908060040154905085565b60606004805480602002602001604051908101604052809291908181526020016000905b828210156107aa57838290600052602060002090600502016040518060a0016040529081600082015481526020016001820180546106fb90610e0f565b80601f016020809104026020016040519081016040528092919081815260200182805461072790610e0f565b80156107745780601f1061074957610100808354040283529160200191610774565b820191906000526020600020905b81548152906001019060200180831161075757829003601f168201915b505050505081526020016002820154815260200160038201548152602001600482015481525050815260200190600101906106be565b50505050905090565b6040518060a0016040528060008152602001606081526020016000815260200160008152602001600081525090565b600073ffffffffffffffffffffffffffffffffffffffff82169050919050565b600061080d826107e2565b9050919050565b61081d81610802565b82525050565b60006020820190506108386000830184610814565b92915050565b6000604051905090565b600080fd5b600080fd5b6000819050919050565b61086581610852565b811461087057600080fd5b50565b6000813590506108828161085c565b92915050565b600080fd5b600080fd5b6000601f19601f8301169050919050565b7f4e487b7100000000000000000000000000000000000000000000000000000000600052604160045260246000fd5b6108db82610892565b810181811067ffffffffffffffff821117156108fa576108f96108a3565b5b80604052505050565b600061090d61083e565b905061091982826108d2565b919050565b600067ffffffffffffffff821115610939576109386108a3565b5b61094282610892565b9050602081019050919050565b82818337600083830152505050565b600061097161096c8461091e565b610903565b90508281526020810184848401111561098d5761098c61088d565b5b61099884828561094f565b509392505050565b600082601f8301126109b5576109b4610888565b5b81356109c584826020860161095e565b91505092915050565b600080600080600060a086880312156109ea576109e9610848565b5b60006109f888828901610873565b955050602086013567ffffffffffffffff811115610a1957610a1861084d565b5b610a25888289016109a0565b9450506040610a3688828901610873565b9350506060610a4788828901610873565b9250506080610a5888828901610873565b9150509295509295909350565b600060208284031215610a7b57610a7a610848565b5b6000610a8984828501610873565b91505092915050565b610a9b81610852565b82525050565b600081519050919050565b600082825260208201905092915050565b60005b83811015610adb578082015181840152602081019050610ac0565b60008484015250505050565b6000610af282610aa1565b610afc8185610aac565b9350610b0c818560208601610abd565b610b1581610892565b840191505092915050565b600060a083016000830151610b386000860182610a92565b5060208301518482036020860152610b508282610ae7565b9150506040830151610b656040860182610a92565b506060830151610b786060860182610a92565b506080830151610b8b6080860182610a92565b508091505092915050565b60006020820190508181036000830152610bb08184610b20565b905092915050565b610bc181610852565b82525050565b6000602082019050610bdc6000830184610bb8565b92915050565b600082825260208201905092915050565b6000610bfe82610aa1565b610c088185610be2565b9350610c18818560208601610abd565b610c2181610892565b840191505092915050565b600060a082019050610c416000830188610bb8565b8181036020830152610c538187610bf3565b9050610c626040830186610bb8565b610c6f6060830185610bb8565b610c7c6080830184610bb8565b9695505050505050565b600081519050919050565b600082825260208201905092915050565b6000819050602082019050919050565b600060a083016000830151610cca6000860182610a92565b5060208301518482036020860152610ce28282610ae7565b9150506040830151610cf76040860182610a92565b506060830151610d0a6060860182610a92565b506080830151610d1d6080860182610a92565b508091505092915050565b6000610d348383610cb2565b905092915050565b6000602082019050919050565b6000610d5482610c86565b610d5e8185610c91565b935083602082028501610d7085610ca2565b8060005b85811015610dac5784840389528151610d8d8582610d28565b9450610d9883610d3c565b925060208a01995050600181019050610d74565b50829750879550505050505092915050565b60006020820190508181036000830152610dd88184610d49565b905092915050565b7f4e487b7100000000000000000000000000000000000000000000000000000000600052602260045260246000fd5b60006002820490506001821680610e2757607f821691505b602082108103610e3a57610e39610de0565b5b50919050565b60008190508160005260206000209050919050565b60006020601f8301049050919050565b600082821b905092915050565b600060088302610ea27fffffffffffffffffffffffffffffffffffffffffffffffffffffffffffffffff82610e65565b610eac8683610e65565b95508019841693508086168417925050509392505050565b6000819050919050565b6000610ee9610ee4610edf84610852565b610ec4565b610852565b9050919050565b6000819050919050565b610f0383610ece565b610f17610f0f82610ef0565b848454610e72565b825550505050565b600090565b610f2c610f1f565b610f37818484610efa565b505050565b5b81811015610f5b57610f50600082610f24565b600181019050610f3d565b5050565b601f821115610fa057610f7181610e40565b610f7a84610e55565b81016020851015610f89578190505b610f9d610f9585610e55565b830182610f3c565b50505b505050565b600082821c905092915050565b6000610fc360001984600802610fa5565b1980831691505092915050565b6000610fdc8383610fb2565b9150826002028217905092915050565b610ff582610aa1565b67ffffffffffffffff81111561100e5761100d6108a3565b5b6110188254610e0f565b611023828285610f5f565b600060209050601f8311600181146110565760008415611044578287015190505b61104e8582610fd0565b8655506110b6565b601f19841661106486610e40565b60005b8281101561108c57848901518255600182019150602085019450602081019050611067565b868310156110a957848901516110a5601f891682610fb2565b8355505b6001600288020188555050505b505050505050565b7f4e487b7100000000000000000000000000000000000000000000000000000000600052603260045260246000fd5b7f4e487b7100000000000000000000000000000000000000000000000000000000600052601160045260246000fd5b600061112782610852565b91507fffffffffffffffffffffffffffffffffffffffffffffffffffffffffffffffff8203611159576111586110ed565b5b60018201905091905056fea2646970667358221220114c3fedf13c5fa65b1bccf2580d145db37943ac51c09dad39842f944067327764736f6c63430008130033a2646970667358221220782ee90a609ad6231999523dec73f267924a414d883c2354b98176d6e1232ef064736f6c63430008130033",
  "immutableReferences": {},
  "source": "// SPDX-License-Identifier: MIT\r\npragma solidity ^0.8.0;\r\n\r\ncontract FactoryContact {\r\n    event ContractCreated(address newContract, uint256 timestamp);\r\n\r\n    MilestoneContractTestEvent[] public deployedContracts;\r\n\r\n    function createContract(address payable _provider, address payable _mo_address) public {\r\n        MilestoneContractTestEvent newContract = new MilestoneContractTestEvent(_provider,_mo_address);\r\n        deployedContracts.push(newContract);\r\n        emit ContractCreated(address(newContract), block.timestamp);\r\n    }\r\n\r\n    function getDeployedContracts() public view returns (MilestoneContractTestEvent[] memory) {\r\n        return deployedContracts;\r\n    }\r\n}\r\n\r\n\r\nstruct Milestone{\r\n   \r\n    uint id;\r\n    string name;\r\n    uint resolveTime;\r\n    uint budget;\r\n    uint numberRevisions;\r\n    \r\n}\r\n\r\n\r\n\r\ncontract MilestoneContractTestEvent{\r\n   address payable public purchaser;\r\n   address payable public provider;\r\n   address  payable public mo_address;\r\n   uint public total_budget=0;\r\n   Milestone[] public milestones;\r\n   \r\n   // Map provider=> MS\r\n   mapping (uint=>Milestone) milestone;\r\n\r\n   event milestoneList(uint id,string name, uint resolvetime, uint budget,uint norevision );\r\n   \r\n//    MilestoneReq msreq;\r\n\r\n//    Milestone[] \r\n   constructor(address payable _provider, address payable _mo_address){\r\n      purchaser =payable (msg.sender);\r\n      provider = _provider;\r\n      mo_address = _mo_address;\r\n      //lockFund();\r\n\r\n   }\r\n   modifier onlyPurchaser {\r\n      require(msg.sender == purchaser);\r\n      _;\r\n   }\r\n\r\n\r\n\r\n\r\n    \r\n   // add MS\r\n    function addMilestone(uint _id,string memory _name,uint _resolvetime,uint _budget,uint _noRevision) public onlyPurchaser\r\n     {\r\n       Milestone memory ms;\r\n       ms.id=_id;\r\n       ms.name=_name;\r\n       ms.resolveTime=_resolvetime;\r\n       ms.budget=_budget;\r\n       ms.numberRevisions=_noRevision;\r\n       \r\n       milestones.push(ms);\r\n\r\n       emit milestoneList(_id, _name, _resolvetime, _budget, _noRevision);\r\n    }\r\n   \r\n // Get all MS\r\n function getAllMS() public view returns (Milestone[] memory msList){\r\n     return milestones;\r\n }\r\n\r\n // Get  MS by id\r\n function getMSbyId(uint _id) public view returns (Milestone memory MS){\r\n     for(uint i=0;i<milestones.length;i++){\r\n       if(milestones[i].id==_id){\r\n           return milestones[i];\r\n       }\r\n     }\r\n     \r\n }\r\n\r\n // Get  MS by id\r\n function getMSbyIdInMap(uint _id) public view returns (Milestone memory MS){\r\n     return milestone[_id];\r\n     \r\n }\r\n \r\n\r\n}",
  "sourcePath": "C:\\Users\\amrit\\Documents\\Hedera\\FactoryContractLatestV1\\contracts\\FactoryContractMilStone.sol",
  "compiler": {
    "name": "solc",
    "version": "0.8.19+commit.7dd6d404.Emscripten.clang"
  },
  "schemaVersion": "3.4.13",
  "updatedAt": "2023-06-04T16:42:08.785Z",
  "devdoc": {
    "kind": "dev",
    "methods": {},
    "version": 1
  },
  "userdoc": {
    "kind": "user",
    "methods": {},
    "version": 1
  }
}